:100000000C942A000C9434000C9434000C943400AA
:100010000C9434000C9434000C9434000C94340090
:100020000C9434000C9434000C9434000C94340080
:100030000C9434000C9434000C9434000C94340070
:100040000C9434000C9434000C9434000C94340060
:100050000C94340011241FBECFE5D8E0DEBFCDBF25
:100060000E94B7060C9418070C940000DF93CF93FE
:1000700000D000D000D0CDB7DEB79C838B837E83C9
:100080006D8381E090E09A83898313C029813A814E
:100090008B819C81AC01249FC001259F900D349FD2
:1000A000900D11249A8389838D819E8101979E836F
:1000B0008D838D819E81009749F7898126960FB6A1
:1000C000F894DEBF0FBECDBFCF91DF910895CF92E0
:1000D000DF92EF92FF920F931F93DF93CF9300D0A5
:1000E00000D0CDB7DEB79A8389836B834C83CC2451
:1000F000DD246894C5F889819A819C0140E050E034
:1001000080E092E1AAE7B0E0BC01CD010E94DB06ED
:10011000DA01C9010F2EF0EFEF2EFFEFFF2EFFEFF8
:100120000F2FFFEF1F2FF02DE80EF91E0A1F1B1FC8
:100130008B81282F30E084E090E0B9010E943600E6
:10014000882F90E0880F991F9C01442737FD409528
:10015000542FC801B7010E94DB06DA01C901F6017C
:100160008083A6E5B0E0E6E5F0E0808180648C93D2
:10017000A1E2B0E0E1E2F0E090818B81892B8C93E9
:10018000E2E2F0E08C81880F80830F900F900F9057
:100190000F90CF91DF911F910F91FF90EF90DF9023
:1001A000CF900895DF93CF930F92CDB7DEB78983B9
:1001B000E2E2F0E08981880F80830F90CF91DF9198
:1001C0000895DF93CF93CDB7DEB7A2E2B0E0E2E2CD
:1001D000F0E0808181608C93CF91DF910895DF936F
:1001E000CF93CDB7DEB7A2E2B0E0E2E2F0E08081EB
:1001F0008E7F8C93CF91DF910895DF93CF930F92F1
:10020000CDB7DEB7A6E5B0E0E6E5F0E08081846A30
:100210008C93E6E5F0E080818823DCF7E1E2F0E012
:100220008081882F90E0887F90708830910511F050
:10023000198202C081E0898389810F90CF91DF917B
:100240000895DF93CF930F92CDB7DEB7A6E5B0E068
:10025000E6E5F0E08081846A8C93E6E5F0E0808159
:100260008823DCF7E1E2F0E08081882F90E0887F4E
:1002700090708031910511F0198202C081E089836C
:1002800089810F90CF91DF910895DF93CF9300D0B4
:100290000F92CDB7DEB789836A83E3E2F0E089810C
:1002A000882F90E0880F991F982F8A81892B80834F
:1002B000A6E5B0E0E6E5F0E080818F7D8C93A6E5D1
:1002C000B0E0E6E5F0E0808180688C93E6E5F0E060
:1002D00080818823DCF7E1E2F0E08081882F90E0E4
:1002E000887F90708831910551F0E1E2F0E08081E3
:1002F000882F90E0887F90708034910519F481E018
:100300008B8301C01B828B810F900F900F90CF9138
:10031000DF910895DF93CF9300D0CDB7DEB7898307
:10032000E3E2F0E089818083A6E5B0E0E6E5F0E075
:10033000808180688C93E6E5F0E080818823DCF79B
:10034000E1E2F0E08081882F90E0887F9070883231
:10035000910519F481E08A8301C01A828A810F9085
:100360000F90CF91DF910895DF93CF9300D00F923C
:10037000CDB7DEB79A838983A6E5B0E0E6E5F0E085
:100380008081846C8C93E6E5F0E080818823DCF743
:10039000E1E2F0E08081882F90E0887F90708038E3
:1003A000910549F4E3E2F0E08081E981FA818083FC
:1003B00081E08B8301C01B828B810F900F900F9087
:1003C000CF91DF910895DF93CF9300D0CDB7DEB703
:1003D0008983E3E2F0E089818083E6E5F0E080E86C
:1003E0008083E6E5F0E080818823DCF7E1E2F0E05D
:1003F0008081882F90E0887F9070883C910519F467
:1004000081E08A8301C01A828A810F900F90CF9178
:10041000DF910895DF93CF9300D00F92CDB7DEB771
:100420009A838983A6E5B0E0E6E5F0E08081806804
:100430008C93E6E5F0E080818823DCF7E1E2F0E0F0
:100440008081882F90E0887F90708035910549F4F5
:10045000E3E2F0E08081E981FA81808381E08B83AF
:1004600001C01B828B810F900F900F90CF91DF9175
:100470000895DF93CF93CDB7DEB7A6E5B0E0E6E50C
:10048000F0E0808180698C93CF91DF910895DF93B4
:10049000CF93CDB7DEB728970FB6F894DEBF0FBE67
:1004A000CDBF8A836B834C8319828C81813009F0A4
:1004B00071C081E089838A81282F30E038872F83BB
:1004C0008F8198858130910549F12F8138852230BF
:1004D00031052CF48F819885009761F0D4C02F816D
:1004E00038852230310571F18F81988583309105EF
:1004F000E9F1C9C0AAE3B0E0EAE3F0E08081482F67
:100500008B81282F30E081E090E0022E02C0880F1E
:10051000991F0A94E2F7842B8C93B5C0A7E3B0E04F
:10052000E7E3F0E08081482F8B81282F30E081E0E5
:1005300090E0022E02C0880F991F0A94E2F7842BE4
:100540008C93A1C0A4E3B0E0E4E3F0E08081482F05
:100550008B81282F30E081E090E0022E02C0880FCE
:10056000991F0A94E2F7842B8C938DC0A1E3B0E02D
:10057000E1E3F0E08081482F8B81282F30E081E09B
:1005800090E0022E02C0880F991F0A94E2F7842B94
:100590008C9379C08C81882309F075C081E08983B0
:1005A0008A81282F30E03E832D838D819E8181308A
:1005B000910559F12D813E81223031052CF48D8138
:1005C0009E81009769F05FC02D813E812230310508
:1005D00089F18D819E818330910509F440C053C01B
:1005E000AAE3B0E0EAE3F0E08081482F8B81282F76
:1005F00030E081E090E0022E02C0880F991F0A943B
:10060000E2F7809584238C933EC0A7E3B0E0E7E354
:10061000F0E08081482F8B81282F30E081E090E04E
:10062000022E02C0880F991F0A94E2F78095842356
:100630008C9329C0A4E3B0E0E4E3F0E08081482F8C
:100640008B81282F30E081E090E0022E02C0880FDD
:10065000991F0A94E2F7809584238C9314C0A1E338
:10066000B0E0E1E3F0E08081482F8B81282F30E07B
:1006700081E090E0022E02C0880F991F0A94E2F7F1
:10068000809584238C9328960FB6F894DEBF0FBE16
:10069000CDBFCF91DF910895DF93CF93CDB7DEB774
:1006A00027970FB6F894DEBF0FBECDBF89836A834C
:1006B0004B838B81813009F06FC08981282F30E016
:1006C0003F832E838E819F818130910549F12E8158
:1006D0003F81223031052CF48E819F81009761F09B
:1006E000D2C02E813F812230310571F18E819F81F0
:1006F00083309105E9F1C7C0ABE3B0E0EBE3F0E094
:100700008081482F8A81282F30E081E090E0022EFE
:1007100002C0880F991F0A94E2F7842B8C93B3C010
:10072000A8E3B0E0E8E3F0E08081482F8A81282F39
:1007300030E081E090E0022E02C0880F991F0A94F9
:10074000E2F7842B8C939FC0A5E3B0E0E5E3F0E0F3
:100750008081482F8A81282F30E081E090E0022EAE
:1007600002C0880F991F0A94E2F7842B8C938BC0E8
:10077000A2E3B0E0E2E3F0E08081482F8A81282FF5
:1007800030E081E090E0022E02C0880F991F0A94A9
:10079000E2F7842B8C9377C08B81882309F073C098
:1007A0008981282F30E03D832C838C819D8181308D
:1007B000910559F12C813D81223031052CF48C8139
:1007C0009D81009769F05FC02C813D812230310509
:1007D00089F18C819D818330910509F440C053C01B
:1007E000ABE3B0E0EBE3F0E08081482F8A81282F73
:1007F00030E081E090E0022E02C0880F991F0A9439
:10080000E2F7809584238C933EC0A8E3B0E0E8E350
:10081000F0E08081482F8A81282F30E081E090E04D
:10082000022E02C0880F991F0A94E2F78095842354
:100830008C9329C0A5E3B0E0E5E3F0E08081482F88
:100840008A81282F30E081E090E0022E02C0880FDC
:10085000991F0A94E2F7809584238C9314C0A2E335
:10086000B0E0E2E3F0E08081482F8A81282F30E079
:1008700081E090E0022E02C0880F991F0A94E2F7EF
:10088000809584238C9327960FB6F894DEBF0FBE15
:10089000CDBFCF91DF910895DF93CF9300D000D0EB
:1008A000CDB7DEB789836A838981282F30E03C8306
:1008B0002B838B819C8181309105D1F02B813C81F0
:1008C000223031052CF48B819C81009761F01EC091
:1008D0002B813C812230310581F08B819C818330DA
:1008E000910581F013C0EAE3F0E08A8180830EC0B5
:1008F000E7E3F0E08A81808309C0E4E3F0E08A81E5
:10090000808304C0E1E3F0E08A8180830F900F9040
:100910000F900F90CF91DF910895DF93CF9300D088
:1009200000D0CDB7DEB789836A838981282F30E074
:100930003C832B838B819C8181309105D1F02B816D
:100940003C81223031052CF48B819C81009761F031
:100950001EC02B813C812230310581F08B819C812E
:100960008330910581F013C0EBE3F0E08A8180834E
:100970000EC0E8E3F0E08A81808309C0E5E3F0E09F
:100980008A81808304C0E2E3F0E08A8180830F9053
:100990000F900F900F90CF91DF910895DF93CF9339
:1009A00000D000D00F92CDB7DEB78A836B838A81E7
:1009B000282F30E03D832C834C815D8141305105EF
:1009C00041F18C819D818230910534F42C813D81EF
:1009D0002115310561F052C04C815D8142305105D5
:1009E00051F18C819D8183309105B9F147C0E9E3D4
:1009F000F0E08081282F30E08B81882F90E0A901E2
:100A000002C0559547958A95E2F7CA01817089839E
:100A100035C0E6E3F0E08081282F30E08B81882F1D
:100A200090E0A90102C0559547958A95E2F7CA0161
:100A30008170898323C0E3E3F0E08081282F30E0D8
:100A40008B81882F90E0A90102C0559547958A9522
:100A5000E2F7CA018170898311C0E0E3F0E0808190
:100A6000282F30E08B81882F90E0A90102C0559596
:100A700047958A95E2F7CA018170898389810F9031
:100A80000F900F900F900F90CF91DF910895DF930B
:100A9000CF9300D000D0CDB7DEB789836A83898138
:100AA000282F30E03C832B838B819C818130910502
:100AB00049F12B813C81223031052CF48B819C81C2
:100AC000009761F05AC02B813C812230310571F1D1
:100AD0008B819C8183309105E9F14FC0AAE3B0E09E
:100AE000EAE3F0E08081482F8A81282F30E081E01E
:100AF00090E0022E02C0880F991F0A94E2F7842723
:100B00008C933BC0A7E3B0E0E7E3F0E08081482F9F
:100B10008A81282F30E081E090E0022E02C0880F09
:100B2000991F0A94E2F784278C9327C0A4E3B0E0CE
:100B3000E4E3F0E08081482F8A81282F30E081E0D3
:100B400090E0022E02C0880F991F0A94E2F78427D2
:100B50008C9313C0A1E3B0E0E1E3F0E08081482F83
:100B60008A81282F30E081E090E0022E02C0880FB9
:100B7000991F0A94E2F784278C930F900F900F909F
:100B80000F90CF91DF910895DF93CF9300D000D0E5
:100B9000CDB7DEB789836A838981282F30E03C8313
:100BA0002B838B819C818130910549F12B813C8184
:100BB000223031052CF48B819C81009761F05AC062
:100BC0002B813C812230310571F18B819C818330F6
:100BD0009105E9F14FC0ABE3B0E0EBE3F0E08081D9
:100BE000482F8A81282F30E081E090E0022E02C059
:100BF000880F991F0A94E2F784278C933BC0A8E3DF
:100C0000B0E0E8E3F0E08081482F8A81282F30E0CF
:100C100081E090E0022E02C0880F991F0A94E2F74B
:100C200084278C9327C0A5E3B0E0E5E3F0E0808162
:100C3000482F8A81282F30E081E090E0022E02C008
:100C4000880F991F0A94E2F784278C9313C0A2E3BC
:100C5000B0E0E2E3F0E08081482F8A81282F30E085
:100C600081E090E0022E02C0880F991F0A94E2F7FB
:100C700084278C930F900F900F900F90CF91DF915E
:100C80000895DF93CF9300D000D00F92CDB7DEB799
:100C90009B838A836C834D838D81882319F480E53F
:100CA000898305C08D81813011F484E589830E9498
:100CB000FD008A819B81892F9927982F93708981C4
:100CC000892B60E00E9445018A810E948A018C8103
:100CD0000E948A010E9439020F900F900F900F908E
:100CE0000F90CF91DF910895DF93CF9300D000D084
:100CF00000D0CDB7DEB79B838A837D836C834E8320
:100D00008E81882319F480E5898305C08E81813026
:100D100011F484E589830E94FD008A819B81892FDB
:100D20009927982F93708981892B60E00E94450153
:100D30008A810E948A010E9421018A819B81892FD8
:100D40009927982F93708981892B61E00E94450132
:100D50008C819D810E940A020E94390226960FB65C
:100D6000F894DEBF0FBECDBFCF91DF910895DF9322
:100D7000CF930F92CDB7DEB780E89AE162E041E011
:100D80000E94670080E06FEF0E944C0484EF91E0C6
:100D900063E640E00E94410684EF91E09E012F5FF0
:100DA0003F4FB90140E00E947406998180E0692FAD
:100DB0000E948D04EBCF97FB092E05260ED057FD20
:100DC00004D014D00AD0001C38F4509540953095CA
:100DD00021953F4F4F4F5F4F0895F6F790958095BF
:100DE000709561957F4F8F4F9F4F0895A1E21A2E06
:100DF000AA1BBB1BFD010DC0AA1FBB1FEE1FFF1FBF
:100E0000A217B307E407F50720F0A21BB30BE40B0E
:100E1000F50B661F771F881F991F1A9469F7609555
:100E20007095809590959B01AC01BD01CF0108950F
:040E3000F894FFCF64
:00000001FF
